{"abi":[{"type":"constructor","inputs":[{"name":"token_","type":"address","internalType":"contract IERC20"}],"stateMutability":"nonpayable"},{"type":"function","name":"balanceOf","inputs":[{"name":"account","type":"address","internalType":"address"}],"outputs":[{"name":"","type":"uint256","internalType":"uint256"}],"stateMutability":"view"},{"type":"function","name":"rewardOf","inputs":[{"name":"account","type":"address","internalType":"address"}],"outputs":[{"name":"","type":"uint256","internalType":"uint256"}],"stateMutability":"view"},{"type":"function","name":"rewardRates","inputs":[{"name":"","type":"uint8","internalType":"enum MyTokenStakingRewardsV1.StakingPeriod"}],"outputs":[{"name":"","type":"uint256","internalType":"uint256"}],"stateMutability":"view"},{"type":"function","name":"stake","inputs":[{"name":"amount","type":"uint256","internalType":"uint256"},{"name":"period_","type":"uint8","internalType":"enum MyTokenStakingRewardsV1.StakingPeriod"}],"outputs":[],"stateMutability":"nonpayable"},{"type":"function","name":"stakeIdToInfo","inputs":[{"name":"","type":"uint256","internalType":"uint256"}],"outputs":[{"name":"id","type":"uint256","internalType":"uint256"},{"name":"staker","type":"address","internalType":"address"},{"name":"stakedAmount","type":"uint256","internalType":"uint256"},{"name":"period","type":"uint8","internalType":"enum MyTokenStakingRewardsV1.StakingPeriod"},{"name":"startTime","type":"uint256","internalType":"uint256"},{"name":"endTime","type":"uint256","internalType":"uint256"},{"name":"rewardsAmount","type":"uint256","internalType":"uint256"},{"name":"claimed","type":"bool","internalType":"bool"}],"stateMutability":"view"},{"type":"function","name":"stakedIds","inputs":[{"name":"","type":"address","internalType":"address"},{"name":"","type":"uint256","internalType":"uint256"}],"outputs":[{"name":"","type":"uint256","internalType":"uint256"}],"stateMutability":"view"},{"type":"function","name":"token","inputs":[],"outputs":[{"name":"","type":"address","internalType":"contract IERC20"}],"stateMutability":"view"},{"type":"function","name":"totalSupply","inputs":[],"outputs":[{"name":"","type":"uint256","internalType":"uint256"}],"stateMutability":"view"},{"type":"function","name":"withdraw","inputs":[{"name":"stakeId_","type":"uint256","internalType":"uint256"}],"outputs":[],"stateMutability":"nonpayable"},{"type":"event","name":"Staked","inputs":[{"name":"staker","type":"address","indexed":true,"internalType":"address"},{"name":"stakeId","type":"uint256","indexed":true,"internalType":"uint256"}],"anonymous":false},{"type":"event","name":"Withdrawn","inputs":[{"name":"staker","type":"address","indexed":true,"internalType":"address"},{"name":"stakeId","type":"uint256","indexed":true,"internalType":"uint256"}],"anonymous":false},{"type":"error","name":"InvalidStake","inputs":[{"name":"staker","type":"address","internalType":"address"},{"name":"stakeAmount","type":"uint256","internalType":"uint256"}]},{"type":"error","name":"InvalidStakeAmount","inputs":[{"name":"amount","type":"uint256","internalType":"uint256"}]},{"type":"error","name":"InvalidStakingPeriod","inputs":[{"name":"period","type":"uint8","internalType":"enum MyTokenStakingRewardsV1.StakingPeriod"}]},{"type":"error","name":"StakeAlreadyClaimed","inputs":[{"name":"stakeId","type":"uint256","internalType":"uint256"}]},{"type":"error","name":"StakeNotFound","inputs":[{"name":"stakeId","type":"uint256","internalType":"uint256"}]},{"type":"error","name":"StakeNotMatured","inputs":[{"name":"stakeId","type":"uint256","internalType":"uint256"},{"name":"currentTime","type":"uint256","internalType":"uint256"},{"name":"endTime","type":"uint256","internalType":"uint256"}]},{"type":"error","name":"WithdrawRewardsFailed","inputs":[{"name":"staker","type":"address","internalType":"address"},{"name":"stakeId","type":"uint256","internalType":"uint256"}]},{"type":"error","name":"WithdrawStakedFailed","inputs":[{"name":"staker","type":"address","internalType":"address"},{"name":"stakeId","type":"uint256","internalType":"uint256"}]},{"type":"error","name":"WithdrawalInvalidStaker","inputs":[{"name":"realStaker","type":"address","internalType":"address"},{"name":"sender","type":"address","internalType":"address"}]}],"bytecode":{"object":"0x60803461010c57601f6109b938819003918201601f19168301916001600160401b038311848410176101105780849260209460405283398101031261010c57516001600160a01b0381169081900361010c575f80546001600160a01b031916919091178155600260205260057fac33ff75c19e70fe83507db0d683fd3465c996598dc972688b7ace676c89077b55600a7fe90b7bceb6e7df5418fb78d8ee546e97c83a08bbccc01a0644d599ccd2a7c2e055600f7f679795a0195a1b76cdebb7c51d74e058aee92919b8c3389af86ef24535e8a28c556003905260147f88601476d11616a71c5be67555bd1dff4b1cbf21533d2669b768b61518cfe1c35560405161089490816101258239f35b5f80fd5b634e487b7160e01b5f52604160045260245ffdfe6080806040526004361015610012575f80fd5b5f3560e01c90816310087fb1146104b75750806310c09bbd1461041357806318160ddd146103f65780631d62ebd9146103be5780632e1a7d4d1461016b578063541cb57f1461013a57806370a082311461010257806396bfdcfe146100aa5763fc0c546a1461007f575f80fd5b346100a6575f3660031901126100a6575f546040516001600160a01b039091168152602090f35b5f80fd5b346100a65760403660031901126100a6576100c3610759565b6001600160a01b03165f908152600360205260409020805460243591908210156100a6576020916100f391610786565b90549060031b1c604051908152f35b346100a65760203660031901126100a6576001600160a01b03610123610759565b165f526006602052602060405f2054604051908152f35b346100a65760203660031901126100a65760043560048110156100a65761016260209161076f565b54604051908152f35b346100a65760203660031901126100a657600435805f52600460205260405f2060018060a01b036001820154169081156103ab573382036103945760078101805460ff8116610381576005830154804210610367575060019060ff19161790555f6020610258600660028501946101e586546005546107f6565b60055585548786528285526101ff604087209182546107f6565b90550180548685526007845261021a604086209182546107f6565b90558354905460405163a9059cbb60e01b81526001600160a01b03888116600483015260248201929092529485939190921691839182906044820190565b03925af1908115610327575f91610348575b5015610332575f8054915460405163a9059cbb60e01b81526001600160a01b0385811660048301526024820192909252926020928492604492849291165af1908115610327575f916102f8575b50156102e3577f7084f5476618d8e60b11ef0d7d3f06914655adb8793e28ff7f018d4c76d505d55f80a3005b6309d6b46560e21b5f5260045260245260445ffd5b61031a915060203d602011610320575b61031281836107af565b8101906107d1565b836102b7565b503d610308565b6040513d5f823e3d90fd5b5063ab33ef4360e01b5f5260045260245260445ffd5b610361915060203d6020116103205761031281836107af565b8461026a565b85639f04f29f60e01b5f526004524260245260445260645ffd5b84633497c6d760e11b5f5260045260245ffd5b50631bb06b9d60e11b5f526004523360245260445ffd5b826351651db960e01b5f5260045260245ffd5b346100a65760203660031901126100a6576001600160a01b036103df610759565b165f526007602052602060405f2054604051908152f35b346100a6575f3660031901126100a6576020600554604051908152f35b346100a65760203660031901126100a6576004355f52600460205260405f20805460018060a01b0360018301541660028301549260ff60038201541693600482015460058301549160ff6007600686015495015416946040519687526020870152604086015260048610156104a357610100956060860152608085015260a084015260c0830152151560e0820152f35b634e487b7160e01b5f52602160045260245ffd5b346100a65760403660031901126100a657600435906024359060048210156100a6578215610746575f80546323b872dd60e01b835233600484015230602484015260448301859052602091839160649183916001600160a01b03165af1908115610327575f91610727575b50156107105761053181610803565b9161053b8261076f565b5480820290828204036106fc5760649004916001545f1981146106fc57600161056a91019485600155426107e9565b90604051610100810181811067ffffffffffffffff8211176106e85760405285815260208101923384526040820190858252606083019384526080830142815260a0840191825260c084019288845260e08501965f88528a5f52600460205260405f2095518655600186019060018060a01b039051166bffffffffffffffffffffffff60a01b8254161790555160028501556003840194519460048610156104a35760079560ff80198354169116179055516004840155516005830155516006820155019051151560ff80198354169116179055335f52600360205260405f208054680100000000000000008110156106e85761066c91600182018155610786565b81549060031b9085821b915f19901b191617905561068c816005546107e9565b600555335f5260066020526106a660405f209182546107e9565b9055335f5260076020526106bf60405f209182546107e9565b9055337f9e71bc8eea02a63969f509818f2dafb9254532904319f9dbda79b67bd34a5f3d5f80a3005b634e487b7160e01b5f52604160045260245ffd5b634e487b7160e01b5f52601160045260245ffd5b5063eb15156960e01b5f523360045260245260445ffd5b610740915060203d6020116103205761031281836107af565b83610522565b8263222d164360e21b5f5260045260245ffd5b600435906001600160a01b03821682036100a657565b60048110156104a3575f52600260205260405f2090565b805482101561079b575f5260205f2001905f90565b634e487b7160e01b5f52603260045260245ffd5b90601f8019910116810190811067ffffffffffffffff8211176106e857604052565b908160209103126100a6575180151581036100a65790565b919082018092116106fc57565b919082039182116106fc57565b6004811080156104a35781610819575050601e90565b60018203610828575050605a90565b6002820361083757505060b490565b6003820361084757505061016d90565b633a71614b60e21b5f52156104a35760045260245ffdfea2646970667358221220be2e4d00ab42287dbcfee4a0551cfe9ef2e58d7765e2535562f770933c575c1e64736f6c63430008230033","linkReferences":{}},"methodIdentifiers":{"balanceOf(address)":"70a08231","rewardOf(address)":"1d62ebd9","rewardRates(uint8)":"541cb57f","stake(uint256,uint8)":"10087fb1","stakeIdToInfo(uint256)":"10c09bbd","stakedIds(address,uint256)":"96bfdcfe","token()":"fc0c546a","totalSupply()":"18160ddd","withdraw(uint256)":"2e1a7d4d"},"id":1}